{
  "contractName": "BlackHoleEosAccount",
  "abi": [
    {
      "constant": true,
      "inputs": [],
      "name": "criticBlock",
      "outputs": [
        {
          "name": "",
          "type": "uint256"
        }
      ],
      "payable": false,
      "stateMutability": "view",
      "type": "function"
    },
    {
      "constant": false,
      "inputs": [],
      "name": "close",
      "outputs": [],
      "payable": false,
      "stateMutability": "nonpayable",
      "type": "function"
    },
    {
      "constant": true,
      "inputs": [],
      "name": "closed",
      "outputs": [
        {
          "name": "",
          "type": "bool"
        }
      ],
      "payable": false,
      "stateMutability": "view",
      "type": "function"
    },
    {
      "constant": true,
      "inputs": [
        {
          "name": "str",
          "type": "string"
        }
      ],
      "name": "isValidKey",
      "outputs": [
        {
          "name": "",
          "type": "bool"
        }
      ],
      "payable": false,
      "stateMutability": "pure",
      "type": "function"
    },
    {
      "constant": true,
      "inputs": [
        {
          "name": "account",
          "type": "string"
        }
      ],
      "name": "isValidAccount",
      "outputs": [
        {
          "name": "",
          "type": "bool"
        }
      ],
      "payable": false,
      "stateMutability": "pure",
      "type": "function"
    },
    {
      "constant": true,
      "inputs": [],
      "name": "erc20Contract",
      "outputs": [
        {
          "name": "",
          "type": "address"
        }
      ],
      "payable": false,
      "stateMutability": "view",
      "type": "function"
    },
    {
      "constant": true,
      "inputs": [],
      "name": "minimumAmount",
      "outputs": [
        {
          "name": "",
          "type": "uint256"
        }
      ],
      "payable": false,
      "stateMutability": "view",
      "type": "function"
    },
    {
      "inputs": [
        {
          "name": "_erc20Contract",
          "type": "address"
        },
        {
          "name": "_criticBlock",
          "type": "uint256"
        },
        {
          "name": "_minimumAmount",
          "type": "uint256"
        }
      ],
      "payable": false,
      "stateMutability": "nonpayable",
      "type": "constructor"
    },
    {
      "anonymous": false,
      "inputs": [],
      "name": "Opened",
      "type": "event"
    },
    {
      "anonymous": false,
      "inputs": [
        {
          "indexed": false,
          "name": "amount",
          "type": "uint256"
        },
        {
          "indexed": false,
          "name": "note",
          "type": "string"
        }
      ],
      "name": "Teleport",
      "type": "event"
    },
    {
      "anonymous": false,
      "inputs": [],
      "name": "Closed",
      "type": "event"
    },
    {
      "constant": false,
      "inputs": [
        {
          "name": "eosAccount",
          "type": "string"
        }
      ],
      "name": "teleport",
      "outputs": [],
      "payable": false,
      "stateMutability": "nonpayable",
      "type": "function"
    }
  ],
  "bytecode": "0x608060405260008060006101000a81548160ff02191690831515021790555034801561002a57600080fd5b5060405160608061157b83398101806040528101908080519060200190929190805190602001909291908051906020019092919050505082828282600060016101000a81548173ffffffffffffffffffffffffffffffffffffffff021916908373ffffffffffffffffffffffffffffffffffffffff16021790555081600181905550806002819055507fd1dcd00534373f20882b79e6ab6875a5c358c5bd576448757ed50e63069ab51860405160405180910390a1505050505050611487806100f46000396000f30060806040526004361061008e576000357c0100000000000000000000000000000000000000000000000000000000900463ffffffff16806303e139221461009357806343d726d6146100be578063597e1fb5146100d55780637125493b1461010457806378c508cf1461016d5780639a37698e146101ee578063a8f6c9131461026f578063bb0c8298146102c6575b600080fd5b34801561009f57600080fd5b506100a86102f1565b6040518082815260200191505060405180910390f35b3480156100ca57600080fd5b506100d36102f7565b005b3480156100e157600080fd5b506100ea610489565b604051808215151515815260200191505060405180910390f35b34801561011057600080fd5b5061016b600480360381019080803590602001908201803590602001908080601f016020809104026020016040519081016040528093929190818152602001838380828437820191505050505050919291929050505061049b565b005b34801561017957600080fd5b506101d4600480360381019080803590602001908201803590602001908080601f0160208091040260200160405190810160405280939291908181526020018383808284378201915050505050509192919290505050610524565b604051808215151515815260200191505060405180910390f35b3480156101fa57600080fd5b50610255600480360381019080803590602001908201803590602001908080601f0160208091040260200160405190810160405280939291908181526020018383808284378201915050505050509192919290505050610b9f565b604051808215151515815260200191505060405180910390f35b34801561027b57600080fd5b50610284610ddd565b604051808273ffffffffffffffffffffffffffffffffffffffff1673ffffffffffffffffffffffffffffffffffffffff16815260200191505060405180910390f35b3480156102d257600080fd5b506102db610e03565b6040518082815260200191505060405180910390f35b60015481565b6000809054906101000a900460ff161515156103a1576040517f08c379a00000000000000000000000000000000000000000000000000000000081526004018080602001828103825260348152602001807f5468697320426c61636b486f6c6520636f6e747261637427732061637469766581526020017f20706572696f642068617320657870697265642e00000000000000000000000081525060400191505060405180910390fd5b6001544310151515610441576040517f08c379a000000000000000000000000000000000000000000000000000000000815260040180806020018281038252602a8152602001807f426c61636b486f6c65206861736e27742072656163686564207468652063726981526020017f746963616c206d6173730000000000000000000000000000000000000000000081525060400191505060405180910390fd5b60016000806101000a81548160ff0219169083151502179055507f1cdde67b72a90f19919ac732a437ac2f7a10fc128d28c2a6e525d89ce5cd9d3a60405160405180910390a1565b6000809054906101000a900460ff1681565b6104a481610b9f565b1515610518576040517f08c379a00000000000000000000000000000000000000000000000000000000081526004018080602001828103825260158152602001807f6e6f742076616c696420454f53206163636f756e74000000000000000000000081525060200191505060405180910390fd5b61052181610e09565b50565b60006060600080849250603583511415156105425760009350610b97565b60457f01000000000000000000000000000000000000000000000000000000000000000283600081518110151561057557fe5b9060200101517f010000000000000000000000000000000000000000000000000000000000000090047f0100000000000000000000000000000000000000000000000000000000000000027effffffffffffffffffffffffffffffffffffffffffffffffffffffffffffff191614158061068d5750604f7f01000000000000000000000000000000000000000000000000000000000000000283600181518110151561061d57fe5b9060200101517f010000000000000000000000000000000000000000000000000000000000000090047f0100000000000000000000000000000000000000000000000000000000000000027effffffffffffffffffffffffffffffffffffffffffffffffffffffffffffff191614155b80610736575060537f0100000000000000000000000000000000000000000000000000000000000000028360028151811015156106c657fe5b9060200101517f010000000000000000000000000000000000000000000000000000000000000090047f0100000000000000000000000000000000000000000000000000000000000000027effffffffffffffffffffffffffffffffffffffffffffffffffffffffffffff191614155b156107445760009350610b97565b600391505b8251821015610b9257828281518110151561076057fe5b9060200101517f010000000000000000000000000000000000000000000000000000000000000090047f010000000000000000000000000000000000000000000000000000000000000002905060317f010000000000000000000000000000000000000000000000000000000000000002817effffffffffffffffffffffffffffffffffffffffffffffffffffffffffffff191610158015610847575060397f010000000000000000000000000000000000000000000000000000000000000002817effffffffffffffffffffffffffffffffffffffffffffffffffffffffffffff191611155b1580156108eb575060417f010000000000000000000000000000000000000000000000000000000000000002817effffffffffffffffffffffffffffffffffffffffffffffffffffffffffffff1916101580156108e9575060487f010000000000000000000000000000000000000000000000000000000000000002817effffffffffffffffffffffffffffffffffffffffffffffffffffffffffffff191611155b155b801561098e5750604a7f010000000000000000000000000000000000000000000000000000000000000002817effffffffffffffffffffffffffffffffffffffffffffffffffffffffffffff19161015801561098c5750604e7f010000000000000000000000000000000000000000000000000000000000000002817effffffffffffffffffffffffffffffffffffffffffffffffffffffffffffff191611155b155b8015610a31575060507f010000000000000000000000000000000000000000000000000000000000000002817effffffffffffffffffffffffffffffffffffffffffffffffffffffffffffff191610158015610a2f5750605a7f010000000000000000000000000000000000000000000000000000000000000002817effffffffffffffffffffffffffffffffffffffffffffffffffffffffffffff191611155b155b8015610ad4575060617f010000000000000000000000000000000000000000000000000000000000000002817effffffffffffffffffffffffffffffffffffffffffffffffffffffffffffff191610158015610ad25750606b7f010000000000000000000000000000000000000000000000000000000000000002817effffffffffffffffffffffffffffffffffffffffffffffffffffffffffffff191611155b155b8015610b775750606d7f010000000000000000000000000000000000000000000000000000000000000002817effffffffffffffffffffffffffffffffffffffffffffffffffffffffffffff191610158015610b755750607a7f010000000000000000000000000000000000000000000000000000000000000002817effffffffffffffffffffffffffffffffffffffffffffffffffffffffffffff191611155b155b15610b855760009350610b97565b8180600101925050610749565b600193505b505050919050565b60006060600080849250600c8351141515610bbd5760009350610dd5565b600091505b8251821015610dd0578282815181101515610bd957fe5b9060200101517f010000000000000000000000000000000000000000000000000000000000000090047f010000000000000000000000000000000000000000000000000000000000000002905060617f010000000000000000000000000000000000000000000000000000000000000002817effffffffffffffffffffffffffffffffffffffffffffffffffffffffffffff191610158015610cc05750607a7f010000000000000000000000000000000000000000000000000000000000000002817effffffffffffffffffffffffffffffffffffffffffffffffffffffffffffff191611155b158015610d64575060317f010000000000000000000000000000000000000000000000000000000000000002817effffffffffffffffffffffffffffffffffffffffffffffffffffffffffffff191610158015610d62575060357f010000000000000000000000000000000000000000000000000000000000000002817effffffffffffffffffffffffffffffffffffffffffffffffffffffffffffff191611155b155b8015610db55750602e7f010000000000000000000000000000000000000000000000000000000000000002817effffffffffffffffffffffffffffffffffffffffffffffffffffffffffffff191614155b15610dc35760009350610dd5565b8180600101925050610bc2565b600193505b505050919050565b600060019054906101000a900473ffffffffffffffffffffffffffffffffffffffff1681565b60025481565b6000610e13610ebd565b90507f57d19c46e6359f529322c86abee928fb16dfe6ba7d23244916c6df7312b32d9c81836040518083815260200180602001828103825283818151815260200191508051906020019080838360005b83811015610e7e578082015181840152602081019050610e63565b50505050905090810190601f168015610eab5780820380516001836020036101000a031916815260200191505b50935050505060405180910390a15050565b60008060008060009054906101000a900460ff16151515610f46576040517f08c379a00000000000000000000000000000000000000000000000000000000081526004018080602001828103825260108152602001807f626c61636b486f6c6520636c6f7365640000000000000000000000000000000081525060200191505060405180910390fd5b600060019054906101000a900473ffffffffffffffffffffffffffffffffffffffff1673ffffffffffffffffffffffffffffffffffffffff166370a08231336040518263ffffffff167c0100000000000000000000000000000000000000000000000000000000028152600401808273ffffffffffffffffffffffffffffffffffffffff1673ffffffffffffffffffffffffffffffffffffffff168152602001915050602060405180830381600087803b15801561100357600080fd5b505af1158015611017573d6000803e3d6000fd5b505050506040513d602081101561102d57600080fd5b81019080805190602001909291905050509150600060019054906101000a900473ffffffffffffffffffffffffffffffffffffffff1673ffffffffffffffffffffffffffffffffffffffff1663dd62ed3e33306040518363ffffffff167c0100000000000000000000000000000000000000000000000000000000028152600401808373ffffffffffffffffffffffffffffffffffffffff1673ffffffffffffffffffffffffffffffffffffffff1681526020018273ffffffffffffffffffffffffffffffffffffffff1673ffffffffffffffffffffffffffffffffffffffff16815260200192505050602060405180830381600087803b15801561113157600080fd5b505af1158015611145573d6000803e3d6000fd5b505050506040513d602081101561115b57600080fd5b8101908080519060200190929190505050905060025481101515156111e8576040517f08c379a00000000000000000000000000000000000000000000000000000000081526004018080602001828103825260188152602001807f6c657373207468616e206d696e696d756d20616d6f756e74000000000000000081525060200191505060405180910390fd5b8082141515611285576040517f08c379a00000000000000000000000000000000000000000000000000000000081526004018080602001828103825260268152602001807f626c61636b486f6c65206d757374206174747261637420616c6c20796f75722081526020017f746f6b656e73000000000000000000000000000000000000000000000000000081525060400191505060405180910390fd5b600060019054906101000a900473ffffffffffffffffffffffffffffffffffffffff1673ffffffffffffffffffffffffffffffffffffffff166323b872dd3330856040518463ffffffff167c0100000000000000000000000000000000000000000000000000000000028152600401808473ffffffffffffffffffffffffffffffffffffffff1673ffffffffffffffffffffffffffffffffffffffff1681526020018373ffffffffffffffffffffffffffffffffffffffff1673ffffffffffffffffffffffffffffffffffffffff1681526020018281526020019350505050602060405180830381600087803b15801561137e57600080fd5b505af1158015611392573d6000803e3d6000fd5b505050506040513d60208110156113a857600080fd5b81019080805190602001909291905050501515611453576040517f08c379a00000000000000000000000000000000000000000000000000000000081526004018080602001828103825260238152602001807f626c61636b486f6c652063616e2774206174747261637420796f757220746f6b81526020017f656e73000000000000000000000000000000000000000000000000000000000081525060400191505060405180910390fd5b8192505050905600a165627a7a7230582087ca76b0d08c276e0a4f04751497c894c5d405eb642c9f1a3f151d5129ef47190029",
  "source": "pragma solidity ^0.4.22;\n\nimport \"./EosValidator.sol\";\nimport \"./BlackHole.sol\";\n\n/** @title BlackHoleEosToAccount \n * \n * @dev It burns ERC20 tokens and log it with an associated EOS account.\n */\ncontract BlackHoleEosAccount is EosValidator, BlackHole{\n    constructor(address _erc20Contract, uint _criticBlock, uint _minimumAmount) public \n    BlackHole(_erc20Contract, _criticBlock, _minimumAmount)\n    {\n    }\n\n    /** @dev It deadlocks your tokens and emit an event with amount and EOS account.\n     */\n    function teleport(string eosAccount) public {\n        require(isValidAccount(eosAccount), \"not valid EOS account\");\n        super.teleport(eosAccount);\n    }\n}\n",
  "sourcePath": "/Users/mwilliams/Google Drive/Projects/PodOne/Technology/eos21/blackhole/contracts/BlackHoleEosAccount.sol",
  "compiler": {
    "name": "solc",
    "version": "0.4.24+commit.e67f0147.Emscripten.clang"
  },
  "schemaVersion": "2.0.1",
  "updatedAt": "2018-12-29T00:30:22.854Z"
}